:100000000C9463000C948B000C948B000C94740380
:100010000C9474030C9474030C948B000C948B005C
:100020000C948B000C948B000C948B000C948B0024
:100030000C948B000C948B000C948B000C948B0014
:100040000C94D2020C948B000C9442030C941C036D
:100050000C948B000C948B000C948B000C948B00F4
:100060000C948B000C948B000000000024002700EF
:100070002A0000000008000201000003040700003D
:1000800000000000000000000000230026002900FE
:1000900000000000250028002B00040404040404D0
:1000A0000404020202020202030303030303010227
:1000B00004081020408001020408102001020408F6
:1000C0001020EE03EE0511241FBECFEFD8E0DEBFF7
:1000D000CDBF11E0A0E0B1E0E4E9FCE002C0059092
:1000E0000D92AA33B107D9F722E0AAE3B1E001C02B
:1000F0001D92A434B207E1F710E0C2E6D0E004C0DC
:100100002197FE010E943206C136D107C9F70E942D
:1001100099040C943D060C94000090E0FC01EE580C
:10012000FF4F2491FC01E255FF4F3491FC01E6564C
:10013000FF4FE491EE2309F43CC0222339F1233030
:1001400091F038F42130A9F0223001F584B58F7D8B
:1001500012C0273091F02830A1F02430B9F48091FA
:1001600080008F7D03C0809180008F778093800016
:100170000DC084B58F7784BD09C08091B0008F77A2
:1001800003C08091B0008F7D8093B000F0E0EE0F4F
:10019000FF1FE057FF4FA591B4919FB7F8946111ED
:1001A00004C08C913095382302C0EC913E2B3C93D7
:1001B0009FBF0895CF93DF9390E0FC01E255FF4F7E
:1001C0002491FC01E656FF4F8491882361F190E071
:1001D000880F991FFC01E859FF4FC591D491FC018C
:1001E000E057FF4FA591B491611109C09FB7F894F2
:1001F0008881209582238883EC912E230BC0623066
:1002000061F49FB7F8948881322F309583238883D7
:10021000EC912E2B2C939FBF06C08FB7F894E881EA
:100220002E2B28838FBFDF91CF910895CF92DF923D
:10023000EF92FF920F931F93CF93DF936C017A019C
:100240008B01C0E0D0E0CE15DF0581F0D8016D91C3
:100250008D01D601ED91FC910190F081E02DC60158
:100260000995892B11F02196EECF7E01C701DF9110
:10027000CF911F910F91FF90EF90DF90CF90089555
:10028000FC01538D448D252F30E0842F90E0821B9C
:10029000930B541710F0CF96089501970895FC0121
:1002A000918D828D981761F0828DDF01A80FB11DAD
:1002B0005D968C91928D9F5F9F73928F90E00895D1
:1002C0008FEF9FEF0895FC01918D828D981731F08B
:1002D000828DE80FF11D858D90E008958FEF9FEFDF
:1002E0000895FC01918D228D892F90E0805C9F4FB5
:1002F000821B91098F739927089588E891E00E94E5
:10030000710121E0892B09F420E0822F0895FC017E
:10031000848DDF01A80FB11DA35ABF4F2C91848D8E
:1003200090E001968F739927848FA689B7892C93C3
:10033000A089B1898C91837080648C93938D848D16
:10034000981306C00288F389E02D80818F7D808319
:100350000895EF92FF920F931F93CF93DF93EC01D9
:1003600081E0888F9B8D8C8D981305C0E889F98971
:10037000808185FD26C0F62E0B8D10E00F5F1F4F8C
:100380000F731127E02E8C8DE8120CC00FB607FCFE
:10039000FACFE889F989808185FFF5CFCE010E94E7
:1003A0008701F1CF8B8DFE01E80FF11DE35AFF4F5E
:1003B000F0829FB7F8940B8FEA89FB898081806275
:1003C0000AC09FB7F894EE89FF896083E889F989AC
:1003D00080818370806480839FBF81E090E0DF91A3
:1003E000CF911F910F91FF90EF900895CF93DF93DE
:1003F000EC01888D8823C9F0EA89FB89808185FD1D
:1004000005C0A889B9898C9186FD0FC00FB607FC7D
:10041000F5CF808185FFF2CFA889B9898C9185FFBE
:10042000EDCFCE010E948701E7CFDF91CF910895F4
:1004300080E090E0892B29F00E947D0181110C94CD
:100440000000089520917C0130917D012817390723
:1004500071F490917A0180917B01981741F0E091BD
:100460007A01F0E0E65CFE4F808190E008958FEF26
:100470009FEF089508951F93CF93DF93DC015C965F
:100480008D919C915D97009739F421E030E01396AF
:100490003C932E9312973BC05196ED91FC9152974D
:1004A00050962C915097322F30951FB75E964C91F5
:1004B0005E97742F727041FD6095F89440817723A8
:1004C00011F0422B01C043234083EC012197F1F747
:1004D00048E0508160FF02C0522B01C0532350837B
:1004E000EC012197F1F76695415099F780817723C8
:1004F00019F08323808302C0282B20831FBF5C96C2
:100500008D919C915D970197F1F781E090E0DF91EB
:10051000CF911F91089520917C0130917D01281782
:10052000390771F480917B0120917A0190E0805C21
:100530009F4F821B910960E470E00E940A060895B3
:1005400080E090E0089520917C0130917D01281792
:100550003907B9F490917A0180917B01981789F05D
:10056000E0917A01F0E0E65CFE4F808120917A0113
:1005700030E02F5F3F4F2F73332720937A0190E0B5
:1005800008958FEF9FEF0895089580E090E008951B
:1005900042E050E064E271E088E891E00C941601DA
:1005A0000E9438061F920F920FB60F9211242F93BC
:1005B0003F938F939F93AF93BF93809184019091CA
:1005C0008501A0918601B09187013091830123E0DC
:1005D000230F2D3720F40196A11DB11D05C026E87B
:1005E000230F0296A11DB11D2093830180938401E6
:1005F00090938501A0938601B093870180917F013C
:1006000090918001A0918101B09182010196A11D7C
:10061000B11D80937F0190938001A0938101B093DD
:100620008201BF91AF919F918F913F912F910F9038
:100630000FBE0F901F9018951F920F920FB60F923A
:1006400011242F933F934F935F936F937F938F93D7
:100650009F93AF93BF93EF93FF9388E891E00E943D
:100660008701FF91EF91BF91AF919F918F917F9102
:100670006F915F914F913F912F910F900FBE0F900F
:100680001F9018951F920F920FB60F9211242F935F
:100690008F939F93EF93FF93E0919801F0919901CD
:1006A0008081E0919E01F0919F0182FD12C09081B6
:1006B0008091A1018F5F8F732091A201821751F069
:1006C000E091A101F0E0E857FE4F958F8093A101E2
:1006D00001C08081FF91EF919F918F912F910F9099
:1006E0000FBE0F901F9018951F920F920FB60F928A
:1006F00011242F933F934F935F936F937F938F9327
:100700009F93AF93BF93EF93FF93E0917C01F091A0
:100710007D01309709F451C0968DA685B7858585F2
:1007200091FF04C09C91892329F447C09C9189239F
:1007300009F043C0A389B4899C9185898095892358
:100740008C93868997890197F1F7608D718DA685C5
:10075000B785558538E020E0CB010197F1F7822F6E
:1007600090E095958795282F4C91452309F02068B6
:10077000315091F7868D81FD209580917B0190E02D
:1007800001968F73992730917A01381749F0A0911B
:100790007B01B0E0A65CBE4F2C9380937B0103C02D
:1007A000868D8160868F828D938D0197F1F7A38965
:1007B000B4899C918589892B8C93FF91EF91BF918E
:1007C000AF919F918F917F916F915F914F913F91E9
:1007D0002F910F900FBE0F901F90189510928B01C4
:1007E00010928A0188EE93E0A0E0B0E080938C0143
:1007F00090938D01A0938E01B0938F0124E031E09E
:10080000309389012093880125EC30E030939501E5
:100810002093940124EC30E03093970120939601CB
:1008200020EC30E0309399012093980121EC30E0E6
:1008300030939B0120939A0122EC30E030939D018C
:1008400020939C0126EC30E030939F0120939E0181
:100850001092A1011092A2011092A3011092A40182
:1008600010922802109227028093290290932A0264
:10087000A0932B02B0932C0286E191E09093260284
:100880008093250210923C0210923B0210923E028D
:1008900010923D021092400210923F0210924202CA
:1008A00010924102609143026E7F6D7F609343021C
:1008B0006695617081E0682783E00E948D0061E0A9
:1008C00083E00E94DA00E1EBF0E0E491E09335028E
:1008D000EDE9F0E0E491F0E0EE0FFF1FE057FF4F8D
:1008E00085919491909337028093360260E082E084
:1008F0000E94DA008091430281FD04C061E082E041
:100900000E948D0082E080933102E0EBF0E0E49100
:10091000E0933202ECE9F0E0E491F0E0EE0FFF1F2B
:10092000EA57FF4F8591949190933402809333025C
:100930000895789484B5826084BD84B5816084BD57
:1009400085B5826085BD85B5816085BD80916E006D
:10095000816080936E00109281008091810082609E
:1009600080938100809181008160809381008091DB
:1009700080008160809380008091B10084608093CA
:10098000B1008091B00081608093B00080917A00C6
:10099000846080937A0080917A00826080937A00EC
:1009A00080917A00816080937A0080917A008068DB
:1009B00080937A001092C100E0919801F091990122
:1009C00082E08083E0919401F09195011082E091A2
:1009D0009601F09197018FEC80831092A001E09135
:1009E0009C01F0919D0186E08083E0919A01F09155
:1009F0009B01808180618083E0919A01F0919B014D
:100A0000808188608083E0919A01F0919B018081D0
:100A100080688083E0919A01F0919B0180818F7DB5
:100A2000808342E150E067E271E088E891E00E9453
:100A300016010E94C8021092400210923F021092CA
:100A40003E0210923D0210923C0210923B028DE950
:100A500091E090934202809341029091310296314D
:100A600008F058C02DEB30E030933C0220933B025D
:100A70002BE931E030933E0220933D022CE231E03D
:100A80003093400220933F0240916800983058F024
:100A900031E09E3008F430E021E0822F01C0880F61
:100AA0003A95EAF701C084E0842B8093680098307F
:100AB00038F09E3040F0963148F020E030E008C039
:100AC0002DE630E005C02BE630E002C02CE630E039
:100AD0003093390220933802983030F481E001C01D
:100AE000880F9A95EAF70EC0292F30E09E3018F44F
:100AF0002850310902C02E50310981E001C0880F11
:100B00002A95EAF780933A0280914102909142023D
:100B10000197F1F780913F0290914002892B49F1B2
:100B2000E0917C01F0917D0182E0E532F80709F166
:100B3000309739F0A389B4899C9185898095892360
:100B40008C93809143028E7F8093430210927B01AD
:100B500010927A0185E292E090937D0180937C016E
:100B6000E0913802F0913902908180913A02892B0C
:100B7000808361E08DE00E94DA0085E292E00E94CD
:100B80008B02892BC9F085E292E00E94A302809338
:100B90007E01682F88E891E00E94A9010E94C802A6
:100BA00080917E01803321F0813331F461E001C016
:100BB00060E08DE00E948D0088E891E00E94710164
:100BC000892B49F088E891E00E944F01682F85E267
:100BD00092E00E943B020E941802CFCF86E191E092
:100BE000909326028093250280917C0190917D0153
:100BF0008552924071F4E0913802F091390290816F
:100C000080913A0280958923808310927D01109211
:100C10007C01089597FB072E16F4009407D077FD0A
:100C200009D00E941E0607FC05D03EF490958195E0
:100C30009F4F0895709561957F4F0895AA1BBB1B28
:100C400051E107C0AA1FBB1FA617B70710F0A61BCC
:100C5000B70B881F991F5A95A9F780959095BC01ED
:100C6000CD010895EE0FFF1F0590F491E02D09943A
:100C700081E090E0F8940C943D0610E0C2E6D0E0EC
:100C800004C0FE010E9432062196C336D107C9F77F
:040C9000F894FFCF06
:100C940000000000A90116014001F60171014F0195
:100CA4006301000000003B021601C5023A028B02F8
:100CB400A30222020D0A00454E54455220415420FD
:0A0CC400436F6D6D616E64733A00BA
:107E0000112484B714BE81FFF0D085E080938100F7
:107E100082E08093C00088E18093C10086E0809377
:107E2000C20080E18093C4008EE0C9D0259A86E02C
:107E300020E33CEF91E0309385002093840096BBD3
:107E4000B09BFECF1D9AA8958150A9F7CC24DD24C4
:107E500088248394B5E0AB2EA1E19A2EF3E0BF2EE7
:107E6000A2D0813461F49FD0082FAFD0023811F036
:107E7000013811F484E001C083E08DD089C08234E0
:107E800011F484E103C0853419F485E0A6D080C0E4
:107E9000853579F488D0E82EFF2485D0082F10E0AE
:107EA000102F00270E291F29000F111F8ED06801E7
:107EB0006FC0863521F484E090D080E0DECF843638
:107EC00009F040C070D06FD0082F6DD080E0C81688
:107ED00080E7D80618F4F601B7BEE895C0E0D1E017
:107EE00062D089930C17E1F7F0E0CF16F0E7DF06D8
:107EF00018F0F601B7BEE89568D007B600FCFDCFD4
:107F0000A601A0E0B1E02C9130E011968C91119780
:107F100090E0982F8827822B932B1296FA010C0160
:107F200087BEE89511244E5F5F4FF1E0A038BF0790
:107F300051F7F601A7BEE89507B600FCFDCF97BE46
:107F4000E89526C08437B1F42ED02DD0F82E2BD052
:107F50003CD0F601EF2C8F010F5F1F4F84911BD097
:107F6000EA94F801C1F70894C11CD11CFA94CF0C13
:107F7000D11C0EC0853739F428D08EE10CD085E9AC
:107F80000AD08FE07ACF813511F488E018D01DD067
:107F900080E101D065CF982F8091C00085FFFCCF94
:107FA0009093C60008958091C00087FFFCCF809118
:107FB000C00084FD01C0A8958091C6000895E0E648
:107FC000F0E098E1908380830895EDDF803219F02E
:107FD00088E0F5DFFFCF84E1DECF1F93182FE3DFCA
:107FE0001150E9F7F2DF1F91089580E0E8DFEE27F6
:047FF000FF270994CA
:027FFE00040479
:0400000300007E007B
:00000001FF
